:100A3D00454E5445522050494E0050494E20434F8B
:100A4D00525245435400444F4F52204F50454E454E
:100A5D004400444F4F5220434C4F5345440057528E
:080A6D004F4E472050494E0096
:080B2500060D313233343500B6
:0F09C4007F0F120B097F38120B097F01120B09ED
:1009D300120B02120A75120ADE7FC0120B09740D84
:1009E3002514F8E6601712089F74082514F8A60763
:1009F300120ADE0514E51470E5051380E17F017E1C
:100A030000120800120B02120A75120ADE7FC012CE
:100A13000B09740D2514F8E6601712089F74082556
:100A230014F8A607120ADE0514E51470E505138011
:070A3300E1E4FFFE120800E0
:030A3A000209D3DB
:090AD9007F2A120B177FE87E034F
:100AE200E4FDFCC3ED9FEC9E5015E4FBFA0BBB004A
:0F0AF200010AEB640A4A70F50DBD00010C80E4A7
:010B010022D1
:070B0200E4F513F5147F80F8
:0E0B09008F90C2B5C2B6D2B7120ADEC2B722B2
:0E0B17008F90D2B5C2B6D2B7120ADEC2B72294
:060A75007BFF7A0A793DC7
:060A7B008B158A16891795
:100A8100E4F518F519AB15AA16A917851982851869
:100A910083120AACFF600D120B170519E51970E5F9
:0B0AA100051880E17F107E27020AE2AA
:10089F00E4FFFEEF4E6003020937C2A0D2A1D2A23D
:1008AF00D2A320B006120AD97F312220B106120A34
:1008BF00D97F322220B206120AD97F3322D2A0C2A8
:1008CF00A1D2A2D2A320B006120AD97F342220B11E
:1008DF0006120AD97F352220B206120AD97F362294
:1008EF00D2A0D2A1C2A2D2A320B006120AD97F37BA
:1008FF002220B106120AD97F382220B206120AD955
:10090F007F3922D2A0D2A1D2A2C2A320B006120A4E
:10091F00D97F2A2220B106120AD97F302230B203A2
:08092F000208A2120AD97F237D
:01093700229D
:100800008F828E83E50D65087079E50E650970733A
:10081000E50F650A706DE510650B7067E511650CF5
:100820007061120ADE7F01120B097F81120B09E54C
:100830008245837BFF7A0A79476023120A7B120A7A
:10084000DED2B3C2B47FC1120B097BFF7A0A79539F
:10085000120A7B7F107E27120AE2D2B38021120A8D
:100860007B120ADEC2B3C2B47FC1120B097BFF7ACE
:100870000A795F120A7B7F107E27120AE2C2B3C296
:10088000B480167F01120B097F80120B097BFF7A5F
:0F0890000A796B120A7B120ADE7F01120B092212
:03000000020938BA
:0C093800787FE4F6D8FD75811902097F74
:100AAC00BB010CE58229F582E5833AF583E02250FF
:100ABC0006E92582F8E622BBFE06E92582F8E22249
:0D0ACC00E58229F582E5833AF583E4932263
:100944000209C4E493A3F8E493A34003F68001F2FC
:1009540008DFF48029E493A3F85407240CC8C333B4
:10096400C4540F4420C8834004F456800146F6DF83
:10097400E4800B0102040810204080900B25E47EE3
:10098400019360BCA3FF543F30E509541FFEE49378
:10099400A360010ECF54C025E060A840B8E493A33F
:1009A400FAE493A3F8E493A3C8C582C8CAC583CA6A
:1009B400F0A3C8C582C8CAC583CADFE9DEE780BE22
:010B2D0000C7
:00000001FF
